:020000040800F2
:10000000A0090020A10100087B2E0008D9280008C3
:10001000792E0008690900082D370008000000004B
:100020000000000000000000000000005533000840
:100030006B0900080000000053330008B1330008CA
:10004000BB010008BB010008BB010008BB010008A0
:10005000BB010008BB010008BB010008BB01000890
:10006000BB010008BB010008BB010008BB01000880
:10007000BB010008BB010008BB010008BB01000870
:10008000BB010008BB010008E5070008BB01000830
:10009000BB010008BB010008BB010008BB01000850
:1000A000BB010008BB010008BB010008BB01000840
:1000B000BB010008BB010008BB010008BB01000830
:1000C000BB010008BB010008BB010008BB01000820
:1000D000BB010008BB010008BB010008BB01000810
:1000E000BB010008BB010008BB010008BB01000800
:1000F000BB010008BB010008BB010008BB010008F0
:10010000BB010008BB010008BB010008BB010008DF
:10011000BB010008BB010008BB010008BB010008CF
:10012000BB010008BB010008BB010008BB010008BF
:10013000BB010008BB010008BB010008BB010008AF
:10014000BB010008BB010008BB010008BB0100089F
:10015000BB010008BB010008BB010008BB0100088F
:10016000BB010008BB010008BB010008BB0100087F
:10017000BB010008BB010008BB0100080000000033
:10018000BB010008BB010008DFF810D000F018FB2D
:1001900000480047D1380008AFF30080A0090020D4
:1001A0000648804706480047FEE7FEE7FEE7FEE711
:1001B000FEE7FEE7FEE7FEE7FEE7FEE7493400085C
:1001C000890100082DE9F05F0546002092469B4614
:1001D00088460646814640241BE02846414647465D
:1001E000224600F01EFA53465A46C01A914110D3D7
:1001F00011461846224600F005FA2D1A67EB010851
:100200004F4622460120002100F0FCF917EB0009BF
:100210004E41201EA4F10104DFDC484631462A4647
:100220004346BDE8F09FD2B201E000F8012B491E21
:10023000FBD270470022F6E710B513460A46044683
:100240001946FFF7F0FF204610BD2DE9FE4F80460E
:1002500081EA0300C00F0C46009021F0004123F01A
:100260000045B8EB0200A94105D240462146904620
:100270001C460B46024623F00040104347D0270D92
:10028000C7F30A00C3F30A510290401A01904028B4
:100290006BDAC3F3130040F4801B0098924620B140
:1002A0000023D2EB030A63EB0B0B01985946C0F114
:1002B0004002504600F0A6F906460D465046594603
:1002C000019A00F0BEF910EB08006141002487EAB2
:1002D000115284EAE7731A4340D0009A62B3019A3C
:1002E000012A4FEA075215DC001B61EB02014FF0B7
:1002F000004202EA0752CDE90042001C41F580119C
:1003000032462B4600F0F5F903B0BDE8F08F4046C9
:100310002146F9E7001B61EB0201001C41F5801347
:1003200000185B412018A2F5001747EB030140EAD3
:10033000D570B6196D4111E06D084FEA360645EAF1
:10034000C0754FEA0752001B61EB0201001C41F52A
:10035000801149084FEA30000019514132462B46BE
:1003600003B0BDE8F04F00F0B5B90098012240009D
:100370000023D0EB020263EBE073009821464FEAC2
:10038000E074B8EB000061EB0401E9E783F000439F
:100390005BE781F0004158E72DE9FE4F81EA030455
:1003A00004F0004421F0004100944FF0000B23F0D2
:1003B000004350EA01045ED052EA03045BD0C3F369
:1003C0000A54C1F30A552C44A4F2F3340194A0FB5F
:1003D0000254C1F3130141F48011C3F3130343F436
:1003E000801301FB024400FB034E840A970A44EA8F
:1003F000815447EA8357A4FB076802958D0A05FBE1
:1004000007854FEA932C04FB0C542705029D4FEA05
:10041000065847EA1637B5EB08056EEB070C870E52
:10042000920E47EA811742EA8312A7FB0201B6EB5C
:100430000B0164EB00042B0D43EA0C335E1844EB14
:100440001C50DA465146E7FB0201C5F313044FEA9C
:100450000B3343EA14534FEA0432019C43EA060388
:10046000A4F10C040294009CCDE900B400F041F921
:1004700003B0BDE8F08F00200146F9E72DE9F04D0B
:1004800081EA030404F0004B21F0004514464FF0CC
:10049000000A23F0004150EA050220D054EA01028C
:1004A0001DD0C5F30A570246C5F31303C1F3130069
:1004B000C1F30A5640F4801543F48013A7EB0608F5
:1004C000101BD64608F2FD3873EB050002D308F185
:1004D000010801E092185B41B8F1000F03DA002037
:1004E0000146BDE8F08D00204FF480110646844699
:1004F0000EE0171B73EB050705D3121B63EB050317
:1005000006434CEA010C49084FEA300092185B415F
:1005100050EA0107EDD152EA030012D082EA04004A
:1005200083EA0501084305D0101BAB4106D2012226
:10053000002306E000224FF0004302E06FF00102CA
:1005400053101AEB06004CEB085110EB0A0041EB7C
:100550000B01BDE8F04D00F0BDB80EB540F23341DF
:1005600002910021CDE900110A460B4600F0C1F8C6
:1005700003B000BDC1F30A5210B5C1F3130140F23C
:10058000FF3341F480119A4201DA002010BD40F29D
:1005900033439A42A2F2334203DC524200F041F864
:1005A00010BD904010BD00F0004230F000400AD075
:1005B000C10D01F56071C0F3160042EA0151C20895
:1005C00040071143704700200146704701F0004387
:1005D00030B421F0004150EA010206D00A0DA2F524
:1005E0006072C1F31301002A02DC30BC00207047A6
:1005F000440F44EAC104C100E01830BC00EBC25013
:1006000000F031B8202A04DB203A00FA02F1002081
:1006100070479140C2F1200320FA03F31943904040
:100620007047202A04DB203A21FA02F000217047AB
:1006300021FA02F3D040C2F120029140084319464A
:100640007047202A06DBCB17203A41FA02F043EA32
:10065000E07306E041FA02F3D040C2F1200291407B
:100660000843194670470029A8BF7047401C49003D
:1006700008BF20F00100704710B4B0FA80FC00FA07
:100680000CF050EA010404BF10BC704749B1CCF132
:10069000200421FA04F411FA0CF118BF01212143BE
:1006A0000843A3EB0C01CB1D4FEA00614FEA102079
:1006B00042BF002010BC704700EBC350104400291B
:1006C000A4BF10BC7047401C490008BF20F00100C7
:1006D00010BC704710B5141E73F1000408DA401CFA
:1006E00041F1000192185B411A4301D120F0010051
:1006F00010BD2DE9F04D92469B4611B1B1FA81F241
:1007000002E0B0FA80F220329046FFF77BFF044609
:100710000F4640EA0A0041EA0B0153465A46084395
:1007200013D0114653EA010019D0C8F140025046D7
:10073000FFF777FF05460E46504659464246FFF7FB
:1007400061FF084305D0012004E020463946BDE89A
:10075000F08D0020054346EAE0762C4337430A98A3
:100760006305E40AA0EB08000022FD0A44EA4754AE
:100770000A3002D500200146E9E701051019694158
:10078000DDE9084500196941BDE8F04DA2E7000028
:1007900030B5041E71F1000404DB4FF00044404208
:1007A00064EB0101141E73F1000405DB1C464FF0DD
:1007B0000043524263EB0403994208BF904230BDAC
:1007C000064C074D06E0E06840F0010394E807009E
:1007D00098471034AC42F6D3FFF7DAFC8C5A000885
:1007E000AC5A0008014800F0EFB9000048000020B2
:1007F00010B504464B48416821F4403141604168DE
:100800006268114341602068416821F48071416051
:1008100020684168226941EA0221416020684168FC
:1008200021F04071416020684168A2681143416035
:100830002068816821F40061816020688168E26835
:1008400011438160A06A6FF07061C84220688168BE
:1008500021F070618160206881680CD0A26A114328
:1008600081602068816821F0405181602068816842
:10087000E26A114301E021F0405181602068816803
:1008800021F00201816020688168227E41EA4201F4
:10089000816094F8200000283FD0606A401E07283D
:1008A00004D94FF4F56120A002F0EDFF2068416803
:1008B00041F4006141602068416821F46041416079
:1008C00020684168264B626A03EB42321143416063
:1008D0002068C16A21F47001C1622068C16AA28BDC
:1008E000204B03EB02521143C1622068816821F45E
:1008F000007181602068816894F8302041EA4221CB
:1009000081602068816821F480618160206881684D
:10091000626941EA8221816010BD2068416821F44A
:100920000061D4E7002301402E2E2F4472697665C2
:1009300072732F53544D3332463478785F48414CAC
:100940005F4472697665722F5372632F73746D33CF
:1009500032663478785F68616C5F6164632E63002F
:1009600000E0FFFF0000F0FFFEE7704772B6FEE711
:1009700070470000F8B500260546009608680C464A
:10098000122804D940F28B615DA002F07CFF606800
:10099000401E0F2804D940F28C6159A002F073FF69
:1009A000A06890B1012810D002280ED003280CD0E6
:1009B00004280AD0052808D0062806D0072804D025
:1009C00040F28D614EA002F05EFF95F83C000128D8
:1009D00019D0012085F83C00206807212A680928E1
:1009E00013D9D3680A3800EB400081408B43D360B1
:1009F0002178A0680A3901EB410188402968CA685A
:100A00001043C86010E00220F8BD136900EB4000FD
:100A100081408B4313612178A06801EB410188403C
:100A200029680A691043086160681F21072813D2EA
:100A30002A68536B401E00EB800081408B43536358
:100A400021792088491E80B201EB81018840296804
:100A50004A6B1043486327E02A680D2812D2136BB3
:100A6000C01F00EB800081408B43136321792088F5
:100A7000C91F80B201EB8101884029680A6B1043CD
:100A8000086311E0D36A0D3800EB800081408B438E
:100A9000D362217920880D3980B201EB8101884031
:100AA0002968CA6A1043C86224492A6822488A42CF
:100AB00006D12268122A03D1426842F480024260C1
:100AC0002A688A4218D12168102901D0112913D12E
:100AD000416841F400014160206810280CD1184899
:100AE00018490068B0FBF1F000EB8000400000E026
:100AF000401E00900028FBD185F83C600020F8BD26
:100B00002E2E2F447269766572732F53544D3332F3
:100B1000463478785F48414C5F4472697665722F3D
:100B20005372632F73746D3332663478785F686103
:100B30006C5F6164632E630000230140002001406C
:100B40004400002040420F007CB5194800F039F8FD
:100B500001251826CDE9006504460246002104233C
:100B6000084602F06FFBA4F6723000EE100A9FED0B
:100B7000111AF8EEC00A80EE810AB5EEC00AF1EE55
:100B800010FA01D29FED0C0ADFED0C0ACDE90065E9
:100B900020EE200A022318213C20BDEEC00A10EEF0
:100BA000102A02F04FFBBDE87C4002F03BBA000087
:100BB0004800002000C09144000000000000C8422E
:100BC00070470068C06C704770B5044600680668DE
:100BD0004568207E30B1012804D040F2B74155A0CD
:100BE00002F051FEE069401E0F2804D94FF49761CE
:100BF00050A002F048FE6069012807D030B10228F9
:100C000004D040F2B9414BA002F03DFE16F0020FB5
:100C100005F020012BD051B3206CC00603D4206C0A
:100C200040F4007020642068816811F0405F17D1A3
:100C3000217EA9B9C16A11F4700F02D081684905FB
:100C40000ED4416821F020014160206C20F48070B6
:100C50002064206CC00403D4206C40F001002064A8
:100C60002046FFF771FF21686FF01200086016F050
:100C7000040F05F0800132D089B3206CC00603D484
:100C8000206C40F4005020642068816811F4401FFB
:100C90001ED1816B11F4401F02D08168490517D421
:100CA0004168490514D4816811F0405F10D1217E5C
:100CB00071B9416821F080014160206C20F48050BE
:100CC0002064206CC00503D4206C40F00100206437
:100CD0002046FFF74DFE21686FF00C00086016F00B
:100CE000010F05F040000FD070B120680068C00708
:100CF0000AD0206C40F480302064204600F046F991
:100D000021686FF00100086016F0200F05F0806187
:100D10000ED000290CD0606C40F0020060642068A6
:100D20006FF0200505602046FFF74AFF2068056048
:100D300070BD00002E2E2F447269766572732F539A
:100D4000544D3332463478785F48414C5F44726981
:100D50007665722F5372632F73746D3332663478F5
:100D6000785F68616C5F6164632E63002DE9F04712
:100D700004004FF000057DD07249206888420AD0F7
:100D80007149884207D07149884204D04FF4A1715B
:100D90006FA002F078FD606868B1B0F5803F0AD0BE
:100DA000B0F5003F07D0B0F5403F04D040F243110A
:100DB00067A002F068FDA0684FF080774FF00078E0
:100DC0004FF0407950B1B84208D0404506D0484570
:100DD00004D04FF4A2715EA002F055FD206930B13D
:100DE000012804D040F2451159A002F04CFD207EAC
:100DF00030B1012804D04FF4A37155A002F043FD97
:100E0000614EA06A80B3B8422ED040452CD04845F0
:100E10002AD0B0F1806F27D0B0F1A06F24D0B0F10C
:100E2000C06F21D0B0F1E06F1ED0B0F1006F1BD0C9
:100E3000B0F1106F18D0B0F1206F15D0B0F1306F55
:100E400012D0B0F1406F0FD0B0F1506F0CD0B0F1B4
:100E5000606F09D0B0F1706F06D0B04204D040F29C
:100E600047113BA002F00FFDE06848B1B0F5006FFC
:100E700006D000E043E04FF4A47135A002F003FD7A
:100E8000E069401E0F2804D940F2491130A002F059
:100E9000FAFC94F8300030B1012804D04FF4A57169
:100EA0002BA002F0F0FC6069012807D030B10228C5
:100EB00004D040F24B1126A002F0E5FC94F820008B
:100EC00030B1012804D04FF4A67121A002F0DBFC60
:100ED000A06AB0420FD0E06A68B1B0F1805F0AD07A
:100EE000B0F1005F07D0B0F1405F04D04FF4A871BB
:100EF00017A002F0C8FC206C002618B108E0012001
:100F0000BDE8F087204600F043F8666484F83C6052
:100F1000206CC00610D4206C20F4885040F00200F1
:100F200020642046FFF764FC6664206C20F0020019
:100F300040F00100206400E0012584F83C60284670
:100F4000DEE70000002001400021014000220140B6
:100F50002E2E2F447269766572732F53544D33329F
:100F6000463478785F48414C5F4472697665722FE9
:100F70005372632F73746D3332663478785F6861AF
:100F80006C5F6164632E63000100000F7047000016
:100F900010B586B0044614216846FFF74BF9154991
:100FA0002068884224D114480021026842F48072EB
:100FB0000260006800F4807005900F4814380268E1
:100FC00042F001020260006800F00100059020205C
:100FD00000900320CDE901016946084800F0DEF8E1
:100FE00000220221122000F01FFB122000F0EAFA7A
:100FF00006B010BD0020014044380240000002400D
:1010000038B5002504460095007E30B1012804D093
:1010100040F2134143A002F036FCE06A68B1B0F13F
:10102000805F0AD0B0F1005F07D0B0F1405F04D01C
:1010300040F214413BA002F026FC94F83C00012849
:1010400007D0012084F83C0020688168C90702D0DD
:1010500011E0022038BD816841F0010181603F4804
:101060003F490068B0FBF1F000EB400000E0401E9B
:1010700000900028FBD120688168C90747D0216C07
:1010800040F20162914341F4807121644168490555
:1010900005D5216C21F4005141F480512164216C6B
:1010A000C90404D5616C21F00601616400E0656447
:1010B00084F83C502B496FF022020260206842689D
:1010C000294B1A43426048682849C006206806D068
:1010D000884224D1816811F0405F13D01FE088421C
:1010E000F8D0234A904203D1D1F80423D206F1D09C
:1010F000204A904213D1D1F8041301F01F011029A6
:10110000E8D30CE0816841F08041816007E0206C09
:1011100040F010002064606C40F00100606400202A
:1011200038BD00002E2E2F447269766572732F53DE
:10113000544D3332463478785F48414C5F4472698D
:101140007665722F5372632F73746D333266347801
:10115000785F68616C5F6164632E63004400002007
:1011600040420F0000230140200000040020014005
:10117000002101400022014070B5044600F0C2F990
:101180000546601C02D004480078044400F0BAF917
:10119000401BA042FAD370BD380000202DE9F84F63
:1011A000DFF888B20D46044658451BD0A04884425B
:1011B00018D0A048844215D09F48844212D09F483E
:1011C00084420FD09E4884420CD09E48844209D06D
:1011D0009D48844206D09D48844203D0AC219CA007
:1011E00002F051FB28680104090C01D0000C03D067
:1011F000AD2197A002F047FB6868F8B101281DD027
:1012000011281BD0022819D0122817D0B0F5881F3A
:1012100014D0B0F5041F11D0B0F5441F0ED0B0F5B6
:10122000901F0BD0B0F5081F08D0B0F5481F05D0AF
:10123000032803D0AE2186A002F025FB00264FF044
:10124000010A4FF0030900BF0AFA06F02F68804632
:10125000074047457ED1287900F00300012801D0DE
:1012600002281DD1E86848B1012807D0022805D01E
:10127000032803D0C02176A002F005FBA16872000C
:1012800009FA02F08143E86890400843A060606872
:10129000297920EA0800C1F30011B14001436160DF
:1012A0002879C043800712D0A86838B1012805D03A
:1012B000022803D0D12166A002F0E5FAE1687200AD
:1012C00009FA02F08143A86890400843E060287959
:1012D00000F0030002282ED12869F8B109281DD09A
:1012E00001281BD0022819D0032817D0042815D0B4
:1012F000052813D0062811D007280FD008280DD0B4
:101300000A280BD00B2809D00C2807D00D2805D0AF
:101310000F2803D0DE214EA002F0B5FAF00804EB4E
:101320008002106A7107CB0E0F219940884329690A
:101330009940014311622068720009FA02F1884362
:10134000297901F00301914001432160686810F49C
:10135000403F00E063E062D04C48016841F48041C6
:101360000160006826F0030100F4804000904848C6
:101370000A18D2F80808B1070B0F0F2199408843CB
:101380005C4501D1002123E029498C4201D1012192
:101390001EE028498C4201D1022119E026498C42E5
:1013A00001D1032114E025498C4201D104210FE031
:1013B00023498C4201D105210AE022498C4201D106
:1013C000062105E020498C4201D1072100E00821D7
:1013D00099400143C2F808182E4908686A68B84362
:1013E000D20200D5384308602A49091D08686A6896
:1013F000B843920200D5384308602649091F08689F
:101400006A68B843920300D5384308602149083917
:1014100008686A68B843D20300D538430860761C70
:10142000102EFFF411AFBDE8F88F0000000002405D
:101430000004024000080240000C0240001002407C
:101440000014024000180240001C0240002002402C
:101450002E2E2F447269766572732F53544D33329A
:10146000463478785F48414C5F4472697665722FE4
:101470005372632F73746D3332663478785F6861AA
:101480006C5F6770696F2E63000000004438024093
:1014900000300140083C014070B515460C0006467E
:1014A00004D140F29D1108A002F0EDF945B1012DE3
:1014B00004D04FF4CF7104A002F0E5F9B46170BD1F
:1014C0002004B06170BD00002E2E2F447269766535
:1014D00072732F53544D3332463478785F48414C01
:1014E0005F4472697665722F5372632F73746D3324
:1014F00032663478785F68616C5F6770696F2E63FD
:10150000000000000148806870470000380000209B
:1015100002488168027811448160704738000020D9
:101520000B4810B5016841F400710160016841F495
:1015300080610160016841F480710160032000F066
:10154000C3F8012000F006F800F024F8002010BDD8
:10155000003C024070B50D4D04464FF47A71287876
:10156000B1FBF0F00A490968B1FBF0F000F0B6FCFD
:1015700048B9102C07D200222146501E00F054F822
:1015800000206C6070BD012070BD0000380000209C
:10159000440000200A4808B5016841F48041016018
:1015A000006800F4804000900548001F016841F089
:1015B00080510160006800F08050009008BD00007C
:1015C0004438024010B5040003D5BC2107A002F046
:1015D0005AF9002C09DB04F01F0101208840610941
:1015E000890001F1E021C1F8000110BD2E2E2F4429
:1015F0007269766572732F53544D3332463478785E
:101600005F48414C5F4472697665722F5372632F55
:1016100073746D3332663478785F68616C5F636FC2
:10162000727465782E63000070B515460C46064648
:10163000102A03D3A82114A002F025F9102C03D3FB
:10164000A92111A002F01FF91E480068C0F302236F
:10165000C3F107022046042A00D90422191D0729D4
:1016600001D2002300E0DB1E012404FA02F1491E2E
:10167000014099409C40641E2C4021433046BDE807
:10168000704002F054B800002E2E2F447269766527
:1016900072732F53544D3332463478785F48414C3F
:1016A0005F4472697665722F5372632F73746D3362
:1016B00032663478785F68616C5F636F72746578E6
:1016C0002E6300000CED00E010B5044607280BD097
:1016D000062C09D0052C07D0042C05D0032C03D0F0
:1016E000902108A002F0CFF8154904F0070208681D
:1016F0004FF6FF03184040EA0220124A10430860E8
:1017000010BD00002E2E2F447269766572732F5320
:10171000544D3332463478785F48414C5F447269A7
:101720007665722F5372632F73746D33326634781B
:10173000785F68616C5F636F727465782E63000018
:101740000CED00E00000FA052DE9F0470E4604001C
:101750007DD02068401E0E2804D940F25A217AA07C
:1017600002F091F896B1012E10D0022E0ED0032E69
:101770000CD0042E0AD0052E08D0062E06D0072E37
:1017800004D040F25B2170A002F07DF8DFF8F08118
:10179000D8F80000F7B200F00700B04207D288F88E
:1017A0000070D8F8000000F00700B0424FD1206868
:1017B000744D810729D5400703D5286840F4E050CF
:1017C00028602078000703D5286840F4604028602E
:1017D000A068A0B1802812D0902810D0A0280ED0E8
:1017E000B0280CD0C0280AD0D02808D0E02806D0D5
:1017F000F02804D040F27E2153A002F044F828687B
:10180000A16820F0F000084328602078C00743D08A
:10181000DFF870916068A9F1080988B1012822D029
:10182000022824D0032822D040F2852146A002F0CD
:101830002AF86068012816D0022818D0032816D08C
:10184000D9F800008007002833DA286800E030E08B
:10185000616820F0030008432860FFF753FE8146CB
:1018600041F2883A11E0D9F800008003EBE7D9F89B
:1018700000008001E7E700BFFFF744FEA0EB09018D
:10188000514502D90320BDE8F0872868616800F05F
:101890000C00B0EB810FEFD1D8F80010404601F0FA
:1018A0000701B14207D90770006800F00700B04295
:1018B00001D00120E7E720784FF4805640074FF42D
:1018C000A0574FF4C0584FF4E05914D5E06860B108
:1018D000B0420AD0B84208D0404506D0484504D0AE
:1018E00040F2C32118A001F0CEFF2868E16820F47F
:1018F000E050084328602078000715D5206960B1C2
:10190000B0420AD0B84208D0404506D0484504D07D
:1019100040F2CA210CA001F0B6FF2868216920F42A
:10192000604040EAC100286000F054F82968164A77
:10193000C1F30311515CC8401449086014480068A1
:10194000FFF708FE00209EE72E2E2F447269766571
:1019500072732F53544D3332463478785F48414C7C
:101960005F4472697665722F5372632F73746D339F
:1019700032663478785F68616C5F7263632E6300EF
:10198000003C024008380240FC3A000844000020B5
:101990003C0000200448054900680968044AC1F376
:1019A0008221515CC8407047440000200838024042
:1019B0000C3B00080448054900680968044AC1F363
:1019C0004231515CC8407047440000200838024052
:1019D0000C3B0008154810B5006810F00C021448C4
:1019E00013D04110042A0FD0082A0ED10F4C241F07
:1019F0002268236802F03F025B0207D52068C0F32B
:101A00008810A0FB010106E0084610BD2168C1F363
:101A10008811A1FB00010023FEF7D4FB2168C1F36C
:101A20000141491C4900B0FBF1F010BD08380240EB
:101A30000024F4002DE9F84F04007DD020680F2821
:101A400003D9E621F7A001F01EFF2078DFF80C94FF
:101A5000C007A9F1040555D060684FF480364FF4F3
:101A6000A02738B1B04205D0B84203D0EB21EDA099
:101A700001F009FFF948001D0168C1F38101012946
:101A800008D00068C0F3810002280AD1D9F800000C
:101A9000400206D52868800334D560680028CCD081
:101AA00030E06068B04203D1286840F480300CE038
:101AB000B842286803D140F480202860F4E720F47D
:101AC00080302860286820F480202860606860B139
:101AD000FFF718FD064604E0FFF714FD801B64289D
:101AE0007ED828688003F7D50CE0FFF70BFD06468B
:101AF00005E000BFFFF706FD801B6428F0D82868CA
:101B00008003F7D42078DFF8588380074FF0000A6D
:101B100056D5E06830B1012804D040F21D11C1A0B3
:101B200001F0B1FE20691F2804D94FF48F71BDA0C8
:101B300001F0A9FEC94800E092E0001D016811F023
:101B40000C0F08D00068C0F38100022810D1D9F82A
:101B5000000040020CD42868800702D5E068012804
:101B60007ED12868216920F0F80040EAC10017E022
:101B7000E068B8B10120C8F80000FFF7C3FC0646D2
:101B800005E000BFFFF7BEFC801B0228A8D828682C
:101B90008007F7D5286820F0F801206941EAC000E5
:101BA00028600DE0C8F800A0FFF7ACFC064604E092
:101BB000FFF7A8FC801B022892D828688007F7D47A
:101BC000207800072ED5A54EA64F60697036D0B19B
:101BD000012808D04FF4AF7192A001F054FE00E04C
:101BE0004BE1606978B101203860FFF78BFC074654
:101BF00005E000BFFFF786FCC01B0228C6D830688E
:101C00008007F7D50EE0C7F800A0FFF77BFC07467A
:101C100005E000BFFFF776FCC01B0228B6D830688D
:101C20008007F7D42078400776D5A068002740B118
:101C3000012806D0052804D04FF4C57179A001F021
:101C400022FEDFF818B20BF13C0BDBF80000C000FD
:101C50000DD4DBF8001041F08051CBF8001000E00B
:101C600038E1DBF80000012700F0805000907E4E44
:101C70003068C00511D4306840F480703060FFF7E0
:101C800041FC009006E000BFFFF73CFC0099401AC1
:101C9000022891D83068C005F6D5704EA0686C3621
:101CA00001280FD00528306810D020F001003060E6
:101CB000306820F004003060A068B8B1FFF722FC63
:101CC00000900FE0306840F00100F4E740F00400BD
:101CD0003060F7E7FFF716FC0099411A41F28830AF
:101CE00081428BD830688007F4D50EE0FFF70AFCFC
:101CF000009007E0FFF706FC0099411A41F2883096
:101D000081428BD830688007F4D42FB1DBF8001003
:101D100021F08051CBF80010A069002876D001286E
:101D200009D0022807D040F2CD113EA001F0ABFD52
:101D3000A0690028F2D04948001D0068C0F3810066
:101D40000228A0696DD0022805D0C8F860A0FFF76E
:101D5000D9FB044694E0E06938B1B0F5800F04D0B7
:101D60004FF4EB712FA001F08EFD206A3F2804D9BB
:101D700040F2D7112BA001F086FD606A3238B0F531
:101D8000BF7F04D94FF4EC7126A001F07CFDA06A5E
:101D900002280AD0042808D0062806D0082804D033
:101DA00040F2D9111FA001F06EFDE06A801E0D28DF
:101DB00004D94FF4ED711BA001F065FD4746C8F84A
:101DC00060A0FFF79FFB064605E000BFFFF79AFB08
:101DD000801B022851D828688001F7D4D4E9070174
:101DE0000843A16A214A490802EB0141626A41EABB
:101DF0008211084394F82C1040EA0161C9F80010E0
:101E000001203866FFF77EFB044606E064E000BF71
:101E1000FFF778FB001B02282FD828688001F7D530
:101E20005AE031E02E2E2F447269766572732F537B
:101E3000544D3332463478785F48414C5F44726980
:101E40007665722F5372632F73746D3332663478F4
:101E5000785F68616C5F7263632E630004380240D0
:101E600000004742800E4742007000400000FFFF24
:101E7000FFF748FB001B022802D90320BDE8F88FBA
:101E800028688001F4D427E00128F7D0D9F80000B1
:101E9000E26900F4800191421CD1226A00F03F0106
:101EA000914217D147F6C071626A0140B1EB821FBF
:101EB00010D1A26A4FF0FF3300F4403103EB52021D
:101EC000B1EB024F06D194F82C1000F07060B0EB2B
:101ED000016F01D00120D1E70020CFE710B5401EEF
:101EE000B0F1807F01D3012010BD4FF0E02460618C
:101EF0000F21601701F01BFC0020A061072020616A
:101F0000002010BD2DE9F05F044600683A4E3B4FBB
:101F1000DFF8EC80DFF8EC90DFF8ECA00D464FF036
:101F2000804BB04215D0584513D0B84211D040452F
:101F30000FD048450DD04FEAB641884209D0334909
:101F4000884206D0504504D040F2B17130A001F073
:101F50009AFC286890B1102810D020280ED0302884
:101F60000CD040280AD0502808D0602806D070280D
:101F700004D040F2B27126A001F085FC6868802888
:101F800005D020B140F2B37121A001F07CFC94F89F
:101F90003C0001282DD0012284F83C20022084F846
:101FA0003D00216848688B6820F0700C286840EA82
:101FB0000C0048602068B0420FD058450DD0B842A0
:101FC0000BD0404509D0484507D0504505D01F49A2
:101FD000884202D01E49884204D1696823F08003F8
:101FE0001943816084F83D20002084F83C00BDE85E
:101FF000F09F0220FBE700000000014000040040C9
:1020000000080040000C00400004014000140040A3
:102010002E2E2F447269766572732F53544D3332CE
:10202000463478785F48414C5F4472697665722F18
:102030005372632F73746D3332663478785F6861DE
:102040006C5F74696D5F65782E630000004001402D
:102050000018004010B5040058D03F49206888425D
:102060002BD0B0F1804F28D03C49884225D03C4944
:10207000884222D03B4988421FD03B4988421CD02D
:102080003A49884219D03A49884216D0394988429B
:1020900013D03949884210D0384988420DD0384988
:1020A00088420AD03749884207D03749884204D04D
:1020B00040F2131135A001F0E6FBA06860B11028D2
:1020C0000AD0202808D0402806D0602804D04FF439
:1020D0008A712EA001F0D7FB206950B1B0F5807F46
:1020E00007D0B0F5007F04D040F2151127A001F011
:1020F000CAFBA06930B1802804D04FF48B7123A0B3
:1021000001F0C1FB94F83D0010B107E0012010BDC3
:10211000002084F83C00204600F054F8022084F8A7
:102120003D00211D206801F097F9012084F8460048
:1021300084F83E0084F83F0084F8400084F84100B1
:1021400084F8420084F8430084F8440084F8450091
:1021500084F83D00002010BD000001400004004054
:1021600000080040000C0040001000400014004037
:10217000000401400040014000440140004801408B
:1021800000180040001C0040002000402E2E2F446C
:102190007269766572732F53544D333246347878B2
:1021A0005F48414C5F4472697665722F5372632FAA
:1021B00073746D3332663478785F68616C5F74690C
:1021C0006D2E630008B50068B0F1804F08D1054856
:1021D000016841F001010160006800F00100009019
:1021E00008BD0000403802402DE9F05F0446006859
:1021F0002D4D2E4E2E4FDFF8BC80DFF8BC90DFF85F
:10220000BCA0DFF8BCB0A84226D0B0F1804F23D0EC
:10221000B04221D0B8421FD040451DD04FEAB54151
:10222000884219D02749884216D0484514D05045D5
:1022300012D0254988420FD0244988420CD05845F5
:102240000AD02349884207D02249884204D04FF45B
:10225000CA7121A001F017FB94F83D00012802D0BB
:102260000120BDE8F09F022084F83D002068A842CC
:102270000ED0B0F1804F0BD0B04209D0B84207D099
:10228000404505D0484503D0504501D0584504D1BC
:10229000816801F00701062903D0016841F00101BE
:1022A00001600020DDE70000000001400004004064
:1022B00000080040000C00400004014000400140C4
:1022C0000018004000140040004401400048014054
:1022D000001C0040002000402E2E2F4472697665BD
:1022E00072732F53544D3332463478785F48414CE3
:1022F0005F4472697665722F5372632F73746D3306
:1023000032663478785F68616C5F74696D2E630043
:102310002DE9F84F05460020009095F83C000C464A
:10232000012841D0012085F83C00022085F83D00BD
:1023300020684FF4805B584516D0702814D0B0F553
:10234000005F11D040280FD050280DD060280BD04E
:1023500050B1102808D0202806D0302804D041F2EF
:10236000B741D4A001F08FFA2868816821F0770185
:1023700021F47F4181602068DC49DD4ADD4BDE4E7F
:10238000DE4FDFF87CC3DFF87C834FF080494FF4E9
:10239000004A50287ED00FDC202804D007DC00281B
:1023A000FBD0102877D161E10220BDE8F88F3028FA
:1023B000F9D04028F6D126E160286DD0702874D07D
:1023C000584544D04FF400584045EBD12868884226
:1023D0000ED048450CD090420AD0984208D0B04266
:1023E00006D0B84204D041F2E241B2A001F04BFA6B
:1023F000A06858B1584509D0404507D0B0F5405FB6
:1024000004D041F2E541ABA001F03DFA60685045CF
:1024100009D040B1022806D00A2804D041F2E64192
:10242000A4A001F030FAE0680F2804D941F2E74196
:10243000A0A001F028FAD4E90121E368286801F09E
:102440006FF82868816841F48041816029E128683B
:102450008842FBD04845F9D09042F7D09842F5D059
:10246000B042F3D0A8498842F0D0A8498842EDD0C4
:10247000B842EBD06045E9D0A5498842E6D0A549ED
:102480008842E3D04045E1D0A3498842DED0A34949
:10249000884203E04FE002E180E006E0D6D041F25E
:1024A000C34184A001F0EFF9FBE02868884212D014
:1024B000484510D090420ED098420CD0B0420AD07D
:1024C000B84208D0604506D0404504D041F2CA4128
:1024D00078A001F0D8F9A06860B158450AD0B0F5ED
:1024E000005F07D0B0F5405F04D041F2CD4171A04C
:1024F00001F0C9F96068504509D040B1022806D002
:102500000A2804D041F2CE416AA001F0BCF9E0688B
:102510000F2804D941F2CF4166A001F0B4F9D4E903
:102520000121E368286800F0FBFF2968886840F013
:1025300077008860B5E02868884212D0484510D0FE
:1025400090420ED098420CD0B0420AD0B84208D087
:10255000604506D0404504D041F2F64155A001F057
:1025600092F96068504509D040B1022806D00A2887
:1025700004D041F2F9414FA001F085F9E0680F283D
:1025800004D941F2FA414BA001F07DF9E26861689B
:10259000286800F0D7FF5021286831E02868884279
:1025A00012D0484510D090420ED098420CD0B04284
:1025B0000AD0B84208D0604506D0404504D041F268
:1025C00006513CA001F05FF96068504509D040B168
:1025D000022806D00A2804D041F2095135A001F0A2
:1025E00052F9E0680F2804D941F20A5131A001F0F4
:1025F0004AF9E2686168286800F0B5FF6021286840
:1026000000F098FF4DE02868884212D0484510D06D
:1026100090420ED098420CD0B0420AD0B84208D0B6
:10262000604506D0404504D041F2165121A001F08A
:102630002AF96068504509D040B1022806D00A281E
:1026400004D041F219511BA001F01DF9E0680F28D8
:1026500004D941F21A5117A001F015F9E268616836
:10266000286800F06FFF40212868C9E72868884281
:1026700012D0484510D090420ED098420CD0B042B3
:102680000AD0B84208D0604506D0404504D041F297
:10269000295108A001F0F7F821682868B0E7012067
:1026A0000090012085F83D00002085F83C0000984E
:1026B0007BE600002E2E2F447269766572732F53CD
:1026C000544D3332463478785F48414C5F447269E8
:1026D0007665722F5372632F73746D33326634785C
:1026E000785F68616C5F74696D2E63000000014063
:1026F0000004004000080040000C004000040140BD
:10270000004001400018004000100040001400404C
:102710000044014000480140001C004000200040EF
:1027200070B5040023D0A0693B4900283B4A3C4BCC
:102730003C4D20681DD088420CD090420AD098426F
:1027400008D0A84206D040F2731137A001F09BF8E0
:10275000A06908B3A069B0F5807F1DD0B0F5007FF7
:102760001AD0B0F5407F17D04FF4BA7111E00120B4
:1027700070BD884210D090420ED098420CD039499A
:10278000884209D03849884206D0A84204D04FF484
:10279000BC7125A001F077F8A06838B1B0F5805F72
:1027A00004D04FF4BD7120A001F06DF8E06938B19C
:1027B000B0F5004F04D040F27B111BA001F063F88C
:1027C00094F83D00002520B984F83C50204600F0E4
:1027D0004DF8242084F83D002068C16821F40051A0
:1027E000C160204600F0D2FE2068016921F49041CA
:1027F00001612068416921F02A0141612068C168B6
:1028000041F40051C1602564202084F83D0084F823
:102810003E00002070BD0000001001400044004058
:1028200000480040001401402E2E2F447269766546
:1028300072732F53544D3332463478785F48414C8D
:102840005F4472697665722F5372632F73746D33B0
:1028500032663478785F68616C5F756172742E637C
:1028600000000000004C00400050004010B586B051
:10287000044614216846FDF7DDFC144920688842AF
:1028800021D113480021026842F010020260006862
:1028900000F0100005900E481438026842F0010262
:1028A0000260006800F0010005904FF4C0600090E5
:1028B0000220CDE90101032003900720049069461E
:1028C0000448FEF76BFC06B010BD0000001001408C
:1028D0004438024000000240FEE7000070B50F4C93
:1028E000012220212046FEF7D7FD01220C4E550281
:1028F00029463046FEF7D0FD00F080F90022202165
:102900002046FEF7C9FD00F079F90022294630463D
:10291000FEF7C2FDBDE8704000F070B9000C024047
:102920000018024010B50A4C002220212046FEF774
:10293000B3FD012251020748FEF7AEFD00F05EF93B
:1029400020460122BDE810402021FEF7A5BD000071
:10295000000C02400018024070B5012220210B48F3
:10296000FEF79AFD00F04AF90122094D5402214672
:102970002846FEF791FD00F041F900222146284645
:10298000FEF78AFDBDE8704000F038B9000C024047
:102990000018024070B50D4C0025C4F880520C4858
:1029A000016821F00C010160016841F0040101603F
:1029B000C4F88452022004F5207400F067FF01205F
:1029C0002060022000F062FF256070BD008041425F
:1029D000000C02400E4810B5016886B041F00801B5
:1029E00001600068012400F0080005900320CDE993
:1029F00000040220CDE9024069460648FEF7CEFBFE
:102A00000548C0F88442C0F8804206B010BD0000FE
:102A100030380240000C02400080414270B50D4C3D
:102A20000025C4F880520C48016821F00C010160B7
:102A3000016841F0040101600126C4F884620220AB
:102A400004F5207400F022FF2660022000F01EFF33
:102A5000256070BD00804142000C02402DE9F04726
:102A6000814616480024016821F00C0101600168CC
:102A70000160134E254627464FF00108C6F88072C4
:102A8000022000F003FFC6F880826006040ED6F82C
:102A9000040208B1641CE4B2012000F0F7FE6D1CD2
:102AA000EDB2082DEAD3B9F1000F04D0FFF772FFA1
:102AB0002046BDE8F087FFF7B1FFF9E7000C0240C0
:102AC000008041422DE9F04106461448016821F09A
:102AD0000C010160016841F004010160104C002705
:102AE000C4F880723D464FF00108F009C4F8840232
:102AF0007006060E022000F0C9FEC4F88082022093
:102B000000F0C4FEC4F88072022000F0BFFE6D1C0D
:102B1000EDB2082DE9D3BDE8F0810000000C0240C1
:102B20000080414270B50D48016821F00C01016040
:102B3000016841F004010160094C0120C4F88402DD
:102B4000C4F88002042004F5207400F09FFE0025E4
:102B50006560042000F09AFE256070BD000C024004
:102B6000008041420E4810B5016821F00C0101605F
:102B7000016841F0040101600A4C0020C4F88002A1
:102B8000C4F88402042004F5207400F07FFE0120C4
:102B900020606060BDE81040042000F077BE0000B7
:102BA000000C02400080414270B5124800240168C8
:102BB00021F00C010160016801600F4D0126C5F88C
:102BC0008462304600F062FEC5F88062012000F0A9
:102BD0005DFE07E0641CE4B2FA2C03D9FFF7C2FFE4
:102BE000012070BDD5F804020028F3D1C5F8800299
:102BF00070BD0000000C0240008041420A20401ECF
:102C0000C0B2FCD2704700007FB500241648009483
:102C1000019402941349039401604FF48031C0E998
:102C200001140461047680F820400903C162012583
:102C3000C5614FF0C061C460816280F83040456179
:102C4000FEF794F808B1FDF791FE0520CDE90005E7
:102C5000694602940448FDF78DFE002801D0FDF777
:102C600085FE7FBD0020014048000020F0B587B000
:102C700014216846FDF7DEFA4E480024016841F051
:102C800010010160016801F010010591016841F037
:102C900004010160016801F004010591016841F03F
:102CA00020010160016801F020010591016841F0F7
:102CB00080010160016801F080010591016841F027
:102CC00001010160016801F001010591016841F015
:102CD00002010160016801F002010591016841F003
:102CE00040010160016801F040010591016841F077
:102CF000080101600068304F00F0080005900022D4
:102D0000B0213846FEF7C8FB4FF6FF760325009644
:102D1000CDE9015469462948FEF740FA0096CDE90D
:102D2000015469462648FEF739FA0096CDE9015468
:102D300069462448FEF732FA49F6DF10CDE900056E
:102D4000694602942048FEF729FA0096CDE901541D
:102D500069461E48FEF722FA0096CDE901546946FD
:102D60001B48FEF71BFA4FF60F70CDE900056946C8
:102D700002943846FEF712FA102001250226CDE90A
:102D80000005CDE9024669463846FEF707FAA0205D
:102D90000090CDE90154694638460394FEF7FEF9E8
:102DA00040208DE8510069463846FEF7F7F907B034
:102DB000F0BD000030380240000C0240001002401C
:102DC00000080240001402400000024000040240DB
:102DD0000018024010B586B00024174800940194F2
:102DE0000294039404944FF080410594016042F2F0
:102DF000CF01C0E901141149C0E903148461FFF750
:102E000029F908B1FDF7B2FD4FF4805000906946F2
:102E10000948FFF77DFA08B1FDF7A8FD2020CDE9AC
:102E2000040404A90448FFF76DF8002801D0FDF759
:102E30009DFD06B010BD0000900000209F8601009F
:102E40000C4810B50A4901604FF4E131416000219E
:102E500081600C22C160C0E904128161C161FFF789
:102E60005FFC002803D0BDE81040FDF77FBD10BD1A
:102E700000100140D8000020FEE7FEE730B400213A
:102E8000084B0A465FF0000003EBC004401CC0B2D0
:102E900062548028F8D3491CC9B20829F2D330BC47
:102EA00000F0C0B81C01002030B5CC0801F00703C9
:102EB00001259D40EBB2064D05EBC005C808285C16
:102EC0000AB1184302E063EA0000C043285530BD50
:102ED0001C01002070B54C4886B0016841F0080123
:102EE0000160016801F008010591016841F04001AD
:102EF00001600068032500F04000059020201124A7
:102F0000012603958DE8510069464048FEF746F9D1
:102F1000700203958DE8510069463D48FEF73EF981
:102F20000021AE2000F0C5F90021084600F0C1F9EB
:102F30000021102000F0BDF90021402000F0B9F977
:102F40000021812000F0B5F90021CF2000F0B1F977
:102F50000021A12000F0ADF90021C82000F0A9F95E
:102F60000021A62000F0A5F90021A82000F0A1F979
:102F700000213F2000F09DF90021D32000F099F9B5
:102F80000021084600F095F90021D52000F091F9C4
:102F90000021802000F08DF90021D92000F089F96E
:102FA0000021F12000F085F90021DA2000F081F9FC
:102FB0000021122000F07DF90021DB2000F079F9DA
:102FC0000021402000F075F90021202000F071F967
:102FD0000021022000F06DF900218D2000F069F938
:102FE0000021142000F065F90021A42000F061F90F
:102FF0000021A62000F05DF9FFF740FF0021AF207F
:1030000000F057F906B070BD30380240000C0240A5
:10301000001802400246012000E05043491EC9B298
:10302000FBD2704770B5184E002400BF04F1B00009
:10303000C0B2002100F03DF90021084600F039F946
:103040000021102000F035F9FFF748FC782000F04F
:1030500083F9FFF781FC402000F07EF9FFF77CFC4C
:103060005FF0000506EBC500005D00F075F9FFF7A5
:1030700073FC6D1CEDB2802DF4D3FFF753FC641C80
:10308000E4B2082CD2D370BD1C0100202DE9FC4F06
:103090001C460E4682468B460190082B0ED06007D8
:1030A00000D0012000EBD400610810FB01F0C0B299
:1030B0008146203AD0B2009000204AE00620F7E78F
:1030C000082C12D00C2C17D0102C1AD0182C43D14D
:1030D0000098234900EBC00001EB8001002711F8A4
:1030E0000850E80712D00B9A13E000981D4900EB36
:1030F000400001EB4001F1E700981B4900EB400064
:10310000EAE71A49009801EB0011E7E70B9828B3AA
:10311000002231465046FFF7C7FE761C7F1C6D0823
:10312000FFB2F6B2082FDCD30AF1010000F0FF0A6B
:10313000082C0AD00199AAEB0100B0EB540F04D17E
:103140000BF108008A4600F0FF0B08F101005E4613
:10315000C0B280464845B3D3BDE8FC8F0122D8E712
:10316000A0470008143B00083C3D0008B04100089F
:103170002DE9FF4F81B08146009098460E468B4660
:10318000580701D0012100E0002101EBD80111FB1B
:1031900008FA002448E000BFB8F1100F12D0B8F1CF
:1031A000180F14D0B8F1200F18D0B8F1400F3DD14E
:1031B0002149039801EB40200027055DE80713D063
:1031C0000E9A14E01D49039801EB4010F4E70398B0
:1031D0001B4900EBC00001EBC000EDE71649039866
:1031E000803901EBC010E7E70E9810B3002231469A
:1031F0004846FFF759FE761C7F1C6D08FFB2F6B2F9
:10320000082FDBD309F10100009900F0FF09A9EBB9
:103210000101414505D10BF10800DDF8009000F0F7
:10322000FF0B641C5E46A4B25445B5D305B0BDE89F
:10323000F08F0122DBE700008C580008FC540008E6
:103240005C5600082DE9F84F0025DDE90A691F46A4
:1032500092468B468046082E00D1022500241CE0B1
:10326000381B401EC1B20A20FFF7D4FEBAFBF0F0B3
:103270000A21B0FBF1F201FB1200CDF8009080B101
:103280003030C2B205EB560101FB0480C0B23346B8
:103290005946FFF7FBFE641CE4B2BC42E0D3BDE834
:1032A000F88F05EB560101FB0480C0B23346302293
:1032B000EEE770B50C460546FFF710FB782000F0EE
:1032C0004BF8FFF749FB0CB1402000E0002000F074
:1032D00043F8FFF741FB284600F03EF8FFF73CFBC0
:1032E000BDE87040FFF71EBB10B50446FFF71AFC9F
:1032F0008020FFF7E7FBFFF757FC2046FFF7E2FBD4
:10330000FFF752FCFFF70EFC8120FFF7DBFBFFF716
:103310004BFC0020FFF7A2FB0446FFF723FC2046EE
:1033200010BD70B50D460446FFF7FCFB8020FFF78B
:10333000C9FBFFF739FC2046FFF7C4FBFFF734FC5D
:103340002846FFF7BFFBFFF72FFCBDE87040FFF7F3
:1033500009BC7047704700002DE9F041DFF8488054
:10336000124F054600244FF40076280601D50122AD
:1033700000E0002220214046FEF78EF8FFF73EFCD9
:10338000012231463846FEF787F8FFF737FC002266
:1033900031463846FEF780F86806641C050EE4B234
:1033A000082CE2D3BDE8F081000C02400018024076
:1033B000FEF7AEB830B593B030216846FCF73AFF5F
:1033C00014210CA8FCF736FF1D480025016841F0C8
:1033D00080510160006800F0805011901948016828
:1033E00041F4804101600068022400F480401190A3
:1033F00001200090000401908001CDE9064008AA58
:103400000420A82182E813000B906846FEF712FB07
:1034100008B172B6FEE70CA90F2081E831004FF425
:10342000A0500F904FF48050109005210CA8FEF78B
:103430008BF9002801D072B6FEE713B030BD000052
:1034400040380240007000400248016841F47001B9
:103450000160704788ED00E0F0B50268254C264D0C
:10346000264E274F274B4FF0804CA04209D0604595
:1034700007D0A84205D0B04203D0B84201D098424C
:1034800004D122F0700E4A6842EA0E02A0421BD01C
:10349000604519D0A84217D0B04215D0B84213D019
:1034A000984211D0184DA8420ED0184DA8420BD00A
:1034B000174DA84208D0174DA84205D0164DA84276
:1034C00002D0164DA84203D122F44075CA682A439F
:1034D0004D6922F080022A4302608A68C2620A684B
:1034E0008262A04201D0984201D1096901630121A1
:1034F0004161F0BD000001400004004000080040B0
:10350000000C004000040140004001400044014024
:103510000048014000180040001C0040002000400E
:1035200010B5846842EA032224F47F440A4322430C
:10353000826010BD826822F070020A4342F00701E7
:103540008160704710B5036A046A24F001040462C4
:10355000846924F0F00444EA021423F00A020A43C6
:103560008461026210BD10B5036A23F01003036288
:103570008369046A23F4704343EA023224F0A0030F
:1035800043EA01118261016210BD000070B504467A
:1035900040685449884204D940F6616152A000F065
:1035A00072F9E06838B1B0F5005F04D040F66261AE
:1035B0004DA000F068F9206950B1B0F5806F07D0D8
:1035C000B0F5C06F04D040F6636147A000F05BF92E
:1035D00060694FF6F371084200D120B940F664618A
:1035E00041A000F050F920680169E26821F44051DF
:1035F000114301612169A068E269084361691143CF
:1036000022680843D16849F20C6399430143D160B1
:1036100020684169A26921F4407111434161414927
:103620002068884202D04049884202D1FEF7C2F9A0
:1036300001E0FEF7AFF9E269002319216425322683
:10364000B2F5004F626828D0A0FB0101930F9200F1
:10365000FCF7B8FD0146B0FBF5F06FF018025043DF
:1036600001EB800006EB0010B0FBF5F000F0F0027B
:10367000B1FBF5F002EB0012B1FBF5F06FF01803AF
:10368000584301EB800006EB0010B0FBF5F000F0B2
:103690000F0021681044886070BDA0FB01019218E2
:1036A0005B41FCF78FFD0146B0FBF5F00201B1FB79
:1036B000F5F06FF01803584301EB800006EBC000F3
:1036C000B0FBF5F000F0F80002EB4002B1FBF5F0C2
:1036D000584301EB800006EBC000B0FBF5F000F0B2
:1036E0000700D6E7A037A0002E2E2F44726976651A
:1036F00072732F53544D3332463478785F48414CBF
:103700005F4472697665722F5372632F73746D33E1
:1037100032663478785F68616C5F756172742E63AD
:10372000000000000010014000140140FEE70907FE
:10373000090E002804DB00F1E02080F80014704737
:1037400000F00F0000F1E02080F8141D7047000029
:103750002DE9F0412DED020B9FED3D0B2DED028B80
:103760009FED3D8BDDE90254C4F30A50A0F2FF3611
:10377000142E37DA002E18DA53EC102B9DED020BC5
:1037800051EC100BFCF761FD53EC182BFDF700F822
:1037900057D2002CA4BF0024254652DA24F0004062
:1037A000284318BF2E4C4CD01AE02E4820FA06F7BA
:1037B00004EA070028431FD053EC102B9DED020BA9
:1037C00051EC100BFCF741FD53EC182BFCF7E0FF1C
:1037D00037D2002C03DA4FF48010F0400444BC438D
:1037E00000252EE0332E07DCA6F114004FF0FF3148
:1037F00021FA00F73D4206D19DED020BBDEC028B94
:1038000002B0BDE8F08153EC102B9DED020B51ECA2
:10381000100BFCF7BEFD53EC182BFCF7B9FF10D2D0
:10382000002C0DDA142E08BF641C09D0C6F1340038
:10383000012101FA00F02844A84238BF641C054663
:10384000BD43CDE902549DED020BD7E70000000017
:103850009C7500883CE4377E0000000000000000FA
:103860000000F0BFFFFF0F0002E008C8121F08C1F0
:10387000002AFAD170477047002001E001C1121FF1
:10388000002AFBD170477047FDF776BC03E0292181
:10389000491EC9B2FCD2401EF9D2704770B5FFF77D
:1038A00099F800210846FFF73CFD322000F090F81F
:1038B000064D0024002135F81420204600F066F85B
:1038C000641CE4B2072CF5D370BD00001C0000207E
:1038D0002DED028B82B0FDF723FEFFF76BFDFFF7A6
:1038E000C5F9FFF7ADFAFFF78FF9FFF773FAFFF7A6
:1038F000D5FFFFF7EFFA0124182304221946002010
:103900000094FFF735FC1823052219461846009449
:10391000FFF72EFC18233A22194630200094FFF7B7
:10392000B5FBFFF77FFB1548FEF75EFC1448FDF77B
:1039300067FB4FF47A742046FDF71EFCFFF74AF848
:10394000322000F045F84FF4C8726421002000F0E6
:103950001DF89FED0C8B0020B0EE480AF0EE680ACF
:1039600000F084F8B0EE480AF0EE680A002000F09B
:103970007DF82046FFF788FFF4E700009000002064
:1039800048000020000000000080564070B504464A
:1039900006200E4600EB84001546C9B2C0B2FFF700
:1039A000C0FC072000EB8400310AC0B2FFF7B9FC6D
:1039B000082000EB8400E9B2C0B2FFF7B2FC290A8C
:1039C000092000EB8400BDE87040C0B2FFF7A9BC3D
:1039D00070B50003FCF7C1FD9FED1E1B53EC112BCE
:1039E000FCF7DAFC41EC100B53EC102B9FED1B0B9A
:1039F00051EC100BFCF742FD9FED1A1B53EC112B01
:103A0000FCF723FC41EC100BFFF7A2FE51EC100B6E
:103A1000FCF7B0FD401EC5B20020FFF765FC044670
:103A200000F07F0040F010010020FFF77AFC2946EB
:103A3000FE20FFF776FC21460020FFF772FC0520F0
:103A4000FFF722FF44F0A101BDE870400020FFF71E
:103A500068BC00000AD7A3703D0AEF3F00000000D9
:103A600084D77741000000000000E03F10B5B5EEBC
:103A7000C00A0446F1EE10FA184802D29FED180A67
:103A800005E010EE101A814201DD9FED160A10EEDE
:103A9000100AFCF788FD9FED141B53EC112BFCF76B
:103AA000EDFC9FED131B53EC112BFCF7CEFBFCF749
:103AB0008DFD00EE100A9FED101AF3EE040A0021AE
:103AC00020EE010A80EE201ABCEEC10A10EE100AA8
:103AD00082B22046BDE81040FFF758BF00003443D3
:103AE0000000000000003443000000000080664039
:103AF000000000000000F03F0000804500000000D2
:103B0000000000000102030406070809000000008D
:103B1000010203040000000000000000002F00006C
:103B200000000700070000147F147F1400242A7F80
:103B30002A120062640813230036495522500000FF
:103B40000503000000001C224100000041221C006F
:103B50000014083E08140008083E0808000000A0F1
:103B600060000008080808080000606000000020ED
:103B700010080402003E5149453E0000427F4000CB
:103B8000004261514946002141454B310018141251
:103B90007F10002745454539003C4A49493000011E
:103BA0007109050300364949493600064949291E6D
:103BB00000003636000000005636000000081422CF
:103BC00041000014141414140000412214080002CF
:103BD0000151090600324959513E007C1211127CF4
:103BE000007F49494936003E41414122007F414121
:103BF000221C007F49494941007F09090901003E13
:103C00004149497A007F0808087F0000417F410050
:103C1000002040413F01007F08142241007F4040C6
:103C20004040007F020C027F007F0408107F003EAE
:103C30004141413E007F09090906003E4151215E94
:103C4000007F091929460046494949310001017F91
:103C50000101003F4040403F001F2040201F003F27
:103C60004038403F006314081463000708700807D9
:103C700000615149454300007F41410000552A55EC
:103C80002A55000041417F00000402010204004067
:103C90004040404000000102040000205454547889
:103CA000007F4844443800384444442000384444A9
:103CB000487F00385454541800087E090102001847
:103CC000A4A4A47C007F080404780000447D400084
:103CD000004080847D00007F102844000000417F68
:103CE0004000007C04180478007C08040478003844
:103CF0004444443800FC242424180018242418FCCC
:103D0000007C0804040800485454542000043F4434
:103D10004020003C4040207C001C2040201C003CF7
:103D20004030403C004428102844001CA0A0A07C47
:103D3000004464544C44141414141414000000007F
:103D400000000000000000000000FC000000000077
:103D500002000000000C020C020000000000000045
:103D600090D0BCD0BC900003000300001824FE4497
:103D70008C000302070201001824D8B04C80000315
:103D800000010201C038E438E00001020201020231
:103D9000080600000000000000000000000000F81D
:103DA0000402000000010204000204F80000000404
:103DB000020100009060F860900000000100000027
:103DC0002020FC2020000000010000000000000076
:103DD0000000080600000000202020202000000035
:103DE00000000000000000000000000200000000D1
:103DF0000080601C0200040300000000F8040404BA
:103E0000F8000102020201000008FC0000000002AC
:103E10000302000018844424180003020202020076
:103E200008042424D80001020202010040B088FCEA
:103E300080000000000302003C242424C40001028E
:103E400002020100F824242CC00001020202010039
:103E50000C04E41C0400000003000000D824242407
:103E6000D80001020202010038444444F800000373
:103E7000020201000000100000000000020000002B
:103E80000000200000000000060000000020508814
:103E90000402000000000102909090909000000049
:103EA0000000000000020488502000020100000011
:103EB0001804C4241800000002000000F804E49470
:103EC000F80001020202020000E09CF08000020300
:103ED0000000030204FC2424D800020302020100B3
:103EE000F80404040C0001020202010004FC0404B2
:103EF000F80002030202010004FC24740C00020317
:103F00000202030004FC24740C00020302000000FF
:103F1000F0080444CC4000010202010004FC20200F
:103F2000FC040203000003020404FC040400020277
:103F300003020200000404FC04040604040300005D
:103F400004FC24D00C0402030200030204FC04005D
:103F50000000020302020203FC3CC03CFC00030020
:103F60000300030004FC30C4FC040203020003004D
:103F7000F8040404F80001020202010004FC2424F5
:103F80001800020302000000F8848404F800010213
:103F90000207050004FC24649800020302000302E7
:103FA000182424448C000302020201000C04FC04C7
:103FB0000C0000020302000004FC0000FC040001ED
:103FC00002020100047C80E01C04000003000000E9
:103FD0001CE03CE01C00000300030000049C609C0B
:103FE0000400020300030200041CE01C04000002A1
:103FF000030200000C84641C04000203020203009C
:104000000000FE020200000007040400000E30C0A1
:104010000000000000010200000202FE0000000497
:10402000040700000004020400000000000000007B
:10403000000000000000080808080808000002004E
:1040400000000000000000000040A0A0C00000012F
:104050000202030204FC2020C0000003020201004F
:1040600000C02020600000010202020000C02024E5
:10407000FC0000010202030200C0A0A0C000000179
:10408000020202000020F8242404000203020200BD
:104090000040A0A0602000070A0A0A0404FC2020B7
:1040A000C0000203020003020020E400000000023E
:1040B00003020000000020E40000080808070000D8
:1040C00004FC80E020200203020003020404FC0040
:1040D0000000020203020200E020E020C000030012
:1040E0000300030020E02020C000020302000302BE
:1040F00000C02020C00000010202010020E02020BA
:10410000C000080F0A02010000C02020E0000001EA
:10411000020A0F0820E040202000020302000000F5
:104120000060A0A020000002020203000020F8208E
:10413000000000000102020020E00020E000000179
:104140000202030220E02080602000000301000042
:104150006080E08060000003000300002060806059
:10416000200002030003020020E0208060200808F5
:10417000070100000020A0602000000203020200EE
:10418000000020DE0200000000070400000000FF25
:1041900000000000000F00000002DE20000000040C
:1041A00007000000020102040402000000000000F9
:1041B00000000000000000000000000000000000FF
:1041C000000000F800000000000000333000000094
:1041D00000100C06100C060000000000000000009B
:1041E00040C07840C0784000043F04043F0404000D
:1041F000007088FC08300000001820FF211E00001D
:10420000F008F000E018000000211C031E211E0031
:1042100000F00888700000001E21232419272110B7
:1042200010160E000000000000000000000000005A
:10423000000000E018040200000000071820400001
:1042400000020418E00000000040201807000000F1
:10425000404080F0804040000202010F0102020055
:10426000000000F0000000000101011F0101010039
:10427000000000000000000080B07000000000009E
:104280000000000000000000000101010101010127
:1042900000000000000000000030300000000000BE
:1042A0000000000080601804006018060100000093
:1042B00000E010080810E000000F102020100F0090
:1042C000001010F8000000000020203F2020000017
:1042D000007008080888700000302824222130006F
:1042E00000300888884830000018202020110E0077
:1042F0000000C02010F8000000070424243F240020
:1043000000F80888880808000019212020110E00F4
:1043100000E0108888180000000F112020110E0006
:1043200000380808C83808000000003F00000000FE
:104330000070880808887000001C222121221C00BF
:1043400000E010080810E0000000312222110F00E8
:10435000000000C0C000000000000030300000007D
:1043600000000080000000000000806000000000ED
:104370000000804020100800000102040810200006
:104380004040404040404000040404040404040051
:1043900000081020408000000020100804020100E6
:1043A000007048080808F0000000003036010000E6
:1043B000C030C828E810E0000718272423140B0099
:1043C0000000C038E0000000203C23020227382013
:1043D00008F8888888700000203F202020110E00F7
:1043E000C0300808080838000718202020100800EE
:1043F00008F808080810E000203F202020100F00D7
:1044000008F88888E8081000203F202023201800A2
:1044100008F88888E8081000203F2000030000000A
:10442000C03008080838000007182020221E0200AB
:1044300008F808000008F808203F210101213F206A
:10444000000808F8080800000020203F2020000095
:1044500000000808F8080800C08080807F00000085
:1044600008F888C028180800203F200126382000BE
:1044700008F8080000000000203F20202020300025
:1044800008F8F800F8F80800203F003F003F20003F
:1044900008F830C00008F808203F200007183F0047
:1044A000E01008080810E0000F10202020100F0076
:1044B00008F808080808F000203F21010101000069
:1044C000E01008080810E0000F18242438504F00AE
:1044D00008F8888888887000203F2000030C30206E
:1044E00000708808080838000038202121221C00AC
:1044F000180808F8080818000000203F20000000F5
:1045000008F808000008F808001F202020201F00DD
:104510000878880000C83808000007380E0100003D
:10452000F80800F80008F800033C0700073C030007
:10453000081868808068180820302C03032C30206D
:104540000838C800C83808000000203F20000000DC
:1045500010080808C8380800203826212020180034
:10456000000000FE020202000000007F4040400008
:10457000000C30C000000000000000010638C00040
:1045800000020202FE000000004040407F000000E8
:10459000000004020202040000000000000000000D
:1045A000000000000000000080808080808080800B
:1045B00000020204000000000000000000000000F3
:1045C00000008080808000000019242222223F20E9
:1045D00008F8008080000000003F112020110E002C
:1045E0000000008080800000000E112020201100BB
:1045F000000000808088F800000E112020103F206D
:104600000000808080800000001F222222221300F0
:10461000008080F0888888180020203F202000003B
:104620000000808080808000006B949494936000F0
:1046300008F8008080800000203F210000203F20FB
:1046400000809898000000000020203F20200000FB
:10465000000000809898000000C08080807F0000EB
:1046600008F8000080808000203F24022D302000C8
:10467000000808F8000000000020203F2020000073
:104680008080808080808000203F20003F20003F8D
:104690008080008080800000203F210000203F209B
:1046A0000000808080800000001F202020201F004C
:1046B000808000808000000080FFA12020110E007B
:1046C0000000008080808000000E112020A0FF806C
:1046D000808080008080800020203F212000010019
:1046E000000080808080800000332424242419006E
:1046F000008080E0808000000000001F202000007B
:104700008080000000808000001F202020103F20BB
:10471000808080000080808000010E30080601004B
:1047200080800080008080800F300C030C300F00F0
:1047300000808000808080000020312E0E3120001B
:10474000808080000080808080818E70180601004B
:1047500000808080808080000021302C2221300069
:1047600000000000807C020200000000003F40408A
:1047700000000000FF00000000000000FF0000003B
:104780000002027C800000000040403F000000006A
:104790000006010102020404000000000000000005
:1047A0000000000000000000000000000000000009
:1047B00000000000000000000000000000000000F9
:1047C000000000000000000000F0F0F00000000019
:1047D0000000000000017F01000000000000000058
:1047E000001C1C1C0000000000008060301C8C605D
:1047F000301C0C0000000000000000000000000061
:10480000000000000000000000000000000000E0C8
:104810000000000000E000000086E69F8686868695
:10482000E69F860000011F01010101011F01010037
:10483000000080C06020F820E0C0000000000307F6
:104840000C18FF70E18100000000070F10107F10AE
:104850000F0700008060206080000000E020000062
:104860000F3020309F70DC371030C0000000100E79
:1048700003000718101807000000C02020E0C00047
:104880000000000080E01F38E88703C43C040000FB
:10489000070F1810100B070D1010080000808C4C2B
:1048A00038000000000000000000000000000000D0
:1048B00000000000000000000000000000000000F8
:1048C00000000000000080E030080400000000004C
:1048D00000FEFF0100000000000000000000030FC8
:1048E0001820400000040830E080000000000000B4
:1048F0000000000001FFFE00000000000040201842
:104900000F03000000000000000000000000C000D5
:1049100000000000004266663C18FF183C666642D4
:104920000000000000000300000000000000000084
:104930000000800000000000001010101010FF1098
:104940001010101000000000000003000000000024
:104950000000000000000000000000000000000057
:10496000000000000000000000808C4C38000000B7
:104970000000000000000000000000000000000037
:104980000010101010101010101010000000000087
:104990000000000000000000000000000000000017
:1049A0000000000000000000000000000000000007
:1049B00000001C1C1C0000000000000000000000A3
:1049C00000000000E0380C000000000080701C03B4
:1049D000000000000060380E010000000000000030
:1049E000000080C060202060C080000000FEFF0149
:1049F0000000000001FFFE000001070E1810101853
:104A00000E0701000000808080C0E0000000000070
:104A10000000000000FFFF00000000000000101078
:104A2000101F1F1010100000008040202020206068
:104A3000C080000000030300804020381F070000F2
:104A4000001C1A1918181818181F00000080C02020
:104A5000202060C080000000000303001010182F09
:104A6000E780000000070F10101010180F0700005B
:104A7000000000000000C0E0F000000000C0B088AE
:104A8000868180FFFF808000000000000010101F62
:104A90001F1010000000E060606060606060000057
:104AA00000003F1008080818F0E0000000070B1095
:104AB0001010101C0F030000000080C040202020B8
:104AC000E0C0000000FCFF211008080818F0E0001A
:104AD0000001070C18101010080F03000000C0E0C0
:104AE0006060606060E06000000003000000E018AB
:104AF0000700000000000000001F1F000000000071
:104B00000080C0602020202060C080000087EF2C43
:104B10001818303068CF830000070F0810101010ED
:104B2000180F07000000C0C020202020C080000017
:104B3000001F3F604040402010FFFE0000000C1CA2
:104B4000101010080F03000000000000000000001B
:104B50000000000000000000000E0E0E000000002B
:104B600000000000001C1C1C0000000000000000F1
:104B7000000000000000000000000000000C0C001D
:104B80000000000000000000005838000000000095
:104B900000000000000000804020100000001028ED
:104BA000448201000000000000000000000001023B
:104BB00004081000000000000000000000000000D9
:104BC00000848484848484848484840000000000BD
:104BD00000000000000000000000102040800000E5
:104BE00000000000000000000000018244281000C6
:104BF00000001008040201000000000000C0202096
:104C00001010101030E0C0000003030000F0100886
:104C10000C070300000000001C1C1C00000000002A
:104C2000000000C0406020202040C00000FCFF01C8
:104C3000F00E03C1FE03807F0001070E0811111062
:104C4000110904020000000080E0E0000000000004
:104C50000000807C4340477FF880000010181F1040
:104C600000000000131F1C1020E0E0202020206026
:104C7000C080000000FFFF10101010182FE7800008
:104C8000101F1F1010101010180F0700000080C018
:104C9000402020202060E00000FCFF010000000018
:104CA000000001000001070E181010100804030096
:104CB00020E0E02020202040C080000000FFFF0016
:104CC0000000000001FFFE00101F1F101010180848
:104CD0000E07010020E0E02020202020206080003E
:104CE00000FFFF101010107C00000000101F1F10AC
:104CF000101010101018060020E0E02020202020C6
:104D00006060800000FFFF101010107C00000100A8
:104D1000101F1F100000000000000000000080C0F5
:104D20006020202040E0000000FCFF010000404027
:104D3000C0C140400001070E181010100F0F0000F6
:104D400020E0E0200000000020E0E02000FFFF1055
:104D50001010101010FFFF00101F1F1000000000A7
:104D6000101F1F100000202020E0E0202020000065
:104D70000000000000FFFF00000000000000101015
:104D8000101F1F101010000000000000202020E065
:104D9000E020202000000000000000FFFF000000D5
:104DA0000060E0808080C07F3F00000020E0E020C5
:104DB000000020A06020200000FFFF30187CE3C02E
:104DC00000000000101F1F10000001131F1C18100E
:104DD00020E0E020000000000000000000FFFF00D5
:104DE0000000000000000000101F1F101010101025
:104DF0001018060020E0E0E000000000E0E0E02005
:104E000000FF013FFEC0E01E01FFFF00101F100069
:104E1000031F0300101F1F1020E0E0C0000000006F
:104E20000020E02000FF0003071C78E08000FF0066
:104E3000101F100000000000030F1F00000080C0C2
:104E400060202060C080000000FEFF010000000024
:104E500000FFFE000001070E181010180C070100DB
:104E600020E0E0202020202060C0800000FFFF2004
:104E700020202020301F0F00101F1F1000000000F6
:104E800000000000000080C060202060C0800000A2
:104E900000FEFF010000000000FFFE000001070E01
:104EA0001111133C7C67210020E0E020202020200D
:104EB00060C0800000FFFF101030F0D0080F070026
:104EC000101F1F10000000030F1C10100080C06096
:104ED000202020204040E00000070F0C1818303040
:104EE00060E08100001F0C0810101010180F070060
:104EF0008060202020E0E020202060800100000071
:104F000000FFFF000000000100000000101F1F1044
:104F10000000000020E0E020000000000020E02071
:104F200000FFFF00000000000000FF0000070F1856
:104F300010101010100807002060E0E020000000B2
:104F400020E060200000077FF88000807C030000E4
:104F500000000000071F1C070000000020E0E02008
:104F600000E0E0200020E0200007FFF8E01FFFFC49
:104F7000E01F00000000031F0300011F03000000EA
:104F8000002060E0A0000020E0602000000000039E
:104F90008F7CF8C6010000000010181E13000117D6
:104FA0001F1810002060E0E02000000020E06020DA
:104FB000000001073EF8E0180700000000000010A4
:104FC000101F1F101000000000806020202020A073
:104FD000E0E0200000000000C0F03E0F03000000F1
:104FE00000101C1F17101010101806000000000001
:104FF00000FC0404040404000000000000FF0000A2
:105000000000000000000000007F404040404000E1
:10501000000010E0000000000000000000000000A0
:10502000031C60800000000000000000000000037E
:105030000C70800000000404040404FC0000000064
:1050400000000000000000FF0000000000004040E1
:105050004040407F0000000000000010080C040CDD
:105060000810000000000000000000000000000028
:105070000000000000000000000000000000000030
:105080000000000000000000000000000000000020
:105090000000000080808080808080808080808010
:1050A00000000004040808000000000000000000E8
:1050B00000000000000000000000000000000000F0
:1050C00000000000000000000000000000000000E0
:1050D000000098D844642424FCF80000000F1F1836
:1050E000101010081F1F10180020E0F00000000032
:1050F000000000000000FFFF180804040CF8F00096
:1051000000001F0F18101010180F030000000000FF
:10511000000000000000000000E0F8180404043C57
:105120003800000000030F0C1010101008060000DB
:105130000000000000000020E0F0000000E0F81C8B
:1051400004040408FFFF000000030F1810101008EB
:105150001F0F080000000000000000000000000019
:105160000000E0F8484444444C7870000000030F0D
:105170000C181010100804000000000080C060200F
:1051800020E0C00000040404FFFF04040404000045
:10519000000010101F1F1010100000000000000081
:1051A0000000000000000000000070F88C04048C77
:1051B000F874040C007076CF8D8D8D89C8787000DE
:1051C0000020E0F000000000000000000000FFFFF1
:1051D00008040404FCF8000000101F1F1000001059
:1051E0001F1F1000000000000060600000000000B1
:1051F0000000040404FCFC0000000000000010108B
:10520000101F1F10101000000000000000000060C0
:105210006000000000000000040404FCFC0000002A
:105220000000C0C08080C07F3F0000000020E0F090
:1052300000000000000000000000FFFF80C0F41C20
:105240000404000000101F1F1100031F1C10100099
:105250000000202020E0F00000000000000000001E
:1052600000FFFF000000000000001010101F1F10C2
:10527000101000000000000000000000000000000E
:1052800004FCFC0804FCFC0804FCFC00101F1F10BC
:10529000001F1F10001F1F10000000000000000072
:1052A000000000000004FCFC08080404FCF80000F6
:1052B00000101F1F100000101F1F10000000000032
:1052C000000000000000000000E0F0180C04040CD6
:1052D00018F0E00000030F0C101010100C0F03006A
:1052E0000000000000000000000000000004FCFCC2
:1052F000080404040CF8F0000080FFFF88901010F0
:105300001C0F03000000000000000000000000006F
:1053100000E0F81C04040408F8FC000000030F1867
:1053200010109088FFFF80000000000000000000C7
:1053300000000000040404FCFC100804040C0C0031
:105340001010101F1F1010100000000000000000BF
:10535000000000000000000000003078CCC484840D
:10536000840C1C0000001E1810101011190F0600EC
:105370000000000000C00000000000000004040461
:10538000FFFF040404000000000000000F1F1010C5
:10539000100C0000000000000000000000000000F1
:1053A0000004FCFE00000004FCFE000000000F1FD3
:1053B000181010081F0F0800000000000000000077
:1053C0000000000000040C3CFCC40000C43C0C04C1
:1053D00000000000010F1E0E010000000000000090
:1053E0000000000000000000043CFCC400E47CFC61
:1053F00084807C040000071F070000071F070000CF
:105400000000000000000000000000000004041C78
:105410007CE4C0341C0404000010101C1601131F8F
:105420001C18100000000000000000000000000038
:1054300000040C3CFCC400C43C0404000000C08018
:10544000C1370E0100000000000000000000000055
:105450000000000000001C0404C4F47C1C040000D4
:105460000000101C1F17111010180E000000000083
:10547000000000F80C04000000000000001028EFFD
:1054800000000000000000000000003F604000003D
:10549000000000000000FF0000000000000000000D
:1054A0000000FF0000000000000000000000FF00FE
:1054B000000000000000040CF800000000000000E4
:1054C00000000000EF281000000000000000406015
:1054D0003F0000000000000000180602020408104F
:1054E0002020300800000000000000000000000044
:1054F0000000000000000000000000000000F010AC
:10550000101010FF10101010F000000000000F0429
:10551000040404FF040404040F0000004040405F42
:10552000555555755555555F404040000040200F7A
:10553000094989790909090F2040000000FE02424B
:105540004ACA4A4ACA4A4A4202FE000000FF405084
:105550004C4340404F50505C40FF00000000F88832
:10556000888888FF88888888F800000000001F0865
:105570000808087F888888889F80F000808282825F
:10558000828282E2A2928A868280800000000000ED
:105590000040807F0000000000000000101010FF9D
:1055A000109008888888FF88888808000444827FD3
:1055B00001808040432C102846818000001010108C
:1055C00010D030FF30D0121C101000001008040260
:1055D000010000FF0000010204081000040404841C
:1055E000E43C2724242424E40404040004020100ED
:1055F000FF0909090949897F0000000000FE225ABD
:105600008600FE9292929292FE00000000FF040833
:105610000700FF4020030C1422414000008040207E
:10562000180680000718204080000000010020704C
:105630002826212020243860000101000010129249
:105640009292929292121202FE0000000000003F1D
:10565000101010103F0040807F000000004080824A
:10566000040C806000FC2424242424242424FE0030
:105670000000000000808083C03C0300F01712127D
:10568000F21212F2121217F0100000000000001FB8
:105690001F1010101F1010101F10101F1010101FBF
:1056A0001018100000000000F88888888898E889A1
:1056B0008E8E8888F8A88888CC880000000000E0DA
:1056C0007F0000202020EF2424242424AF60200029
:1056D0000000000000100C0300202020101008091A
:1056E000060406090818101030101000008000048D
:1056F000183800C000F8F84848484848484848FC6E
:105700000800000000800187C2380700C08F0F0426
:10571000FC040404FC04048FE06000000000113F5E
:1057200001002020202722203F2020203F24232169
:105730002030200000000000F01010101030D012B7
:105740001C1C1010F050101098100000000000C039
:10575000FF0101414141DF49494949495FC14101D7
:1057600001010000002018070040404020201112D5
:105770000C080C12113020206020200000000000D6
:10578000C0404040404040FE404040404040C0405B
:105790000000000000000000FF848484848484FFF3
:1057A000848484848484FF000000000000000000E2
:1057B000030000000000007F404040404040414066
:1057C000607C00000000000000FCFC949494949421
:1057D0009494949494FC00000000000000020202E3
:1057E00002FB2B2A2A2A2AFAFA2A2A2A2AFBFA0256
:1057F0000203020000202024242725252525253FFB
:105800003F25252525272724203000000000000003
:105810000000000000000000000000FCF800000094
:105820000000000000000000000000000000000078
:10583000FFFE020202020202020202FFFF02020255
:10584000020202020202FF0300000000000000004A
:105850001F1F040404040404040404FFFF040404DC
:105860000404040404041F00000000000000000001
:1058700000000000000000000000007F3F0000006A
:105880000000000000000000000000000000000018
:105890000000000000000000000000000000000008
:1058A000000000000000000000F8F8F0F070200098
:1058B00000000000000000000000000000000000E8
:1058C00000000000000000000000000000000000D8
:1058D0000000000080000000000000000000000048
:1058E000000000000000000000FFFFFFFF000000BC
:1058F00000000000000000000000000000000000A8
:105900008080000000000000000000000000000097
:105910000000000000FFFFFE06060606060606065B
:10592000060606060606060606FFFFFFFF06060633
:10593000060606060606060606060606060606FF0E
:10594000FFFFFF0702000000000000000000000051
:105950000000000000FFFFFF00000000000000004A
:10596000000000000000000000FFFFFFFF0000003B
:10597000000000000000000000000000000000FF28
:10598000FFFFFF000000000000000000000000001A
:105990000000000000FFFFFF18181818181818184A
:1059A000181818181818181818FFFFFFFF181818DB
:1059B000181818181818181818181818181818FF80
:1059C000FFFFFF00000000000000000000000000DA
:1059D00000000000020101000000000000000000C3
:1059E000000000000000000000FFFFFFFF000000BB
:1059F00000000000000000000000000000000001A6
:105A00000100000000000000000000000000000095
:105A10000000000000000000000000000000000086
:105A2000000000000000000000FFFFFFFF0000007A
:105A30000000000000000000000000000000000066
:105A40000000000000000000000000000000000056
:105A50000000000000000000000000000000000046
:105A60000000000000000000001F1F0F0F000000DA
:105A70000000000000000000000000000000000026
:105A8000000000000000000000000000AC5A000808
:105A9000000000204800000068380008F45A0008A0
:105AA0004800002058090000783800080A0000006B
:105AB00033B37A439A99CF420000000033B37A435C
:105AC0009A99CF4200000000330133013B013301BA
:105AD00033013B0133012C010E010E010E010E01B9
